{
  "_format": "hh-sol-artifact-1",
  "contractName": "MultiHopAggregator",
  "sourceName": "contracts/MultiHopAggregator.sol",
  "abi": [
    {
      "inputs": [
        {
          "internalType": "address",
          "name": "_feeCollector",
          "type": "address"
        },
        {
          "internalType": "address",
          "name": "_v2",
          "type": "address"
        },
        {
          "internalType": "address",
          "name": "_v3",
          "type": "address"
        },
        {
          "internalType": "address",
          "name": "_kitten",
          "type": "address"
        },
        {
          "internalType": "address",
          "name": "_liquid",
          "type": "address"
        },
        {
          "internalType": "address",
          "name": "_gluex",
          "type": "address"
        },
        {
          "internalType": "address",
          "name": "_pxv1",
          "type": "address"
        },
        {
          "internalType": "address",
          "name": "_pxv2",
          "type": "address"
        }
      ],
      "stateMutability": "nonpayable",
      "type": "constructor"
    },
    {
      "inputs": [],
      "name": "feeCollector",
      "outputs": [
        {
          "internalType": "address",
          "name": "",
          "type": "address"
        }
      ],
      "stateMutability": "view",
      "type": "function"
    },
    {
      "inputs": [
        {
          "internalType": "address",
          "name": "tokenIn",
          "type": "address"
        },
        {
          "internalType": "address",
          "name": "tokenOut",
          "type": "address"
        },
        {
          "internalType": "uint256",
          "name": "amountIn",
          "type": "uint256"
        }
      ],
      "name": "getBestQuote",
      "outputs": [
        {
          "internalType": "uint256",
          "name": "bestAmountOut",
          "type": "uint256"
        },
        {
          "internalType": "address",
          "name": "bestRouter",
          "type": "address"
        }
      ],
      "stateMutability": "view",
      "type": "function"
    },
    {
      "inputs": [],
      "name": "glueX",
      "outputs": [
        {
          "internalType": "contract IUniswapV2Router",
          "name": "",
          "type": "address"
        }
      ],
      "stateMutability": "view",
      "type": "function"
    },
    {
      "inputs": [],
      "name": "hyperSwapV2",
      "outputs": [
        {
          "internalType": "contract IUniswapV2Router",
          "name": "",
          "type": "address"
        }
      ],
      "stateMutability": "view",
      "type": "function"
    },
    {
      "inputs": [],
      "name": "hyperSwapV3",
      "outputs": [
        {
          "internalType": "contract IUniswapV3Router",
          "name": "",
          "type": "address"
        }
      ],
      "stateMutability": "view",
      "type": "function"
    },
    {
      "inputs": [],
      "name": "kittenSwap",
      "outputs": [
        {
          "internalType": "contract IUniswapV2Router",
          "name": "",
          "type": "address"
        }
      ],
      "stateMutability": "view",
      "type": "function"
    },
    {
      "inputs": [],
      "name": "liquidSwap",
      "outputs": [
        {
          "internalType": "contract IUniswapV2Router",
          "name": "",
          "type": "address"
        }
      ],
      "stateMutability": "view",
      "type": "function"
    },
    {
      "inputs": [],
      "name": "owner",
      "outputs": [
        {
          "internalType": "address",
          "name": "",
          "type": "address"
        }
      ],
      "stateMutability": "view",
      "type": "function"
    },
    {
      "inputs": [],
      "name": "projectXV1",
      "outputs": [
        {
          "internalType": "contract IUniswapV2Router",
          "name": "",
          "type": "address"
        }
      ],
      "stateMutability": "view",
      "type": "function"
    },
    {
      "inputs": [],
      "name": "projectXV2",
      "outputs": [
        {
          "internalType": "contract IUniswapV2Router",
          "name": "",
          "type": "address"
        }
      ],
      "stateMutability": "view",
      "type": "function"
    },
    {
      "inputs": [
        {
          "internalType": "address",
          "name": "_collector",
          "type": "address"
        }
      ],
      "name": "setFeeCollector",
      "outputs": [],
      "stateMutability": "nonpayable",
      "type": "function"
    },
    {
      "inputs": [
        {
          "internalType": "address",
          "name": "tokenIn",
          "type": "address"
        },
        {
          "internalType": "address",
          "name": "tokenOut",
          "type": "address"
        },
        {
          "internalType": "uint256",
          "name": "amountIn",
          "type": "uint256"
        },
        {
          "internalType": "uint256",
          "name": "amountOutMin",
          "type": "uint256"
        },
        {
          "internalType": "address",
          "name": "to",
          "type": "address"
        }
      ],
      "name": "swap",
      "outputs": [
        {
          "internalType": "uint256",
          "name": "amountOut",
          "type": "uint256"
        }
      ],
      "stateMutability": "nonpayable",
      "type": "function"
    }
  ],
  "bytecode": "0x60806040523480156200001157600080fd5b5060405162001a7638038062001a768339818101604052810190620000379190620002f7565b336000806101000a81548173ffffffffffffffffffffffffffffffffffffffff021916908373ffffffffffffffffffffffffffffffffffffffff16021790555087600160006101000a81548173ffffffffffffffffffffffffffffffffffffffff021916908373ffffffffffffffffffffffffffffffffffffffff16021790555086600260006101000a81548173ffffffffffffffffffffffffffffffffffffffff021916908373ffffffffffffffffffffffffffffffffffffffff16021790555085600360006101000a81548173ffffffffffffffffffffffffffffffffffffffff021916908373ffffffffffffffffffffffffffffffffffffffff16021790555084600460006101000a81548173ffffffffffffffffffffffffffffffffffffffff021916908373ffffffffffffffffffffffffffffffffffffffff16021790555083600560006101000a81548173ffffffffffffffffffffffffffffffffffffffff021916908373ffffffffffffffffffffffffffffffffffffffff16021790555082600660006101000a81548173ffffffffffffffffffffffffffffffffffffffff021916908373ffffffffffffffffffffffffffffffffffffffff16021790555081600760006101000a81548173ffffffffffffffffffffffffffffffffffffffff021916908373ffffffffffffffffffffffffffffffffffffffff16021790555080600860006101000a81548173ffffffffffffffffffffffffffffffffffffffff021916908373ffffffffffffffffffffffffffffffffffffffff1602179055505050505050505050620003c0565b600080fd5b600073ffffffffffffffffffffffffffffffffffffffff82169050919050565b6000620002bf8262000292565b9050919050565b620002d181620002b2565b8114620002dd57600080fd5b50565b600081519050620002f181620002c6565b92915050565b600080600080600080600080610100898b0312156200031b576200031a6200028d565b5b60006200032b8b828c01620002e0565b98505060206200033e8b828c01620002e0565b9750506040620003518b828c01620002e0565b9650506060620003648b828c01620002e0565b9550506080620003778b828c01620002e0565b94505060a06200038a8b828c01620002e0565b93505060c06200039d8b828c01620002e0565b92505060e0620003b08b828c01620002e0565b9150509295985092959890939650565b6116a680620003d06000396000f3fe608060405234801561001057600080fd5b50600436106100b45760003560e01c8063a42dce8011610071578063a42dce8014610180578063b00d65351461019c578063c415b95c146101ba578063d5bcb9b5146101d8578063dedad19714610208578063fb59291b14610226576100b4565b80631bd57041146100b9578063228c04b8146100d75780633c44102414610108578063665d88d7146101265780637fead67e146101445780638da5cb5b14610162575b600080fd5b6100c1610244565b6040516100ce9190610d67565b60405180910390f35b6100f160048036038101906100ec9190610e0a565b61026a565b6040516100ff929190610e7b565b60405180910390f35b610110610651565b60405161011d9190610ec5565b60405180910390f35b61012e610677565b60405161013b9190610d67565b60405180910390f35b61014c61069d565b6040516101599190610d67565b60405180910390f35b61016a6106c3565b6040516101779190610ee0565b60405180910390f35b61019a60048036038101906101959190610efb565b6106e7565b005b6101a46107b9565b6040516101b19190610d67565b60405180910390f35b6101c26107df565b6040516101cf9190610ee0565b60405180910390f35b6101f260048036038101906101ed9190610f28565b610805565b6040516101ff9190610fa3565b60405180910390f35b610210610baa565b60405161021d9190610d67565b60405180910390f35b61022e610bd0565b60405161023b9190610d67565b60405180910390f35b600460009054906101000a900473ffffffffffffffffffffffffffffffffffffffff1681565b60008060006040518060e00160405280600260009054906101000a900473ffffffffffffffffffffffffffffffffffffffff1673ffffffffffffffffffffffffffffffffffffffff1673ffffffffffffffffffffffffffffffffffffffff168152602001600360009054906101000a900473ffffffffffffffffffffffffffffffffffffffff1673ffffffffffffffffffffffffffffffffffffffff1673ffffffffffffffffffffffffffffffffffffffff168152602001600460009054906101000a900473ffffffffffffffffffffffffffffffffffffffff1673ffffffffffffffffffffffffffffffffffffffff1673ffffffffffffffffffffffffffffffffffffffff168152602001600560009054906101000a900473ffffffffffffffffffffffffffffffffffffffff1673ffffffffffffffffffffffffffffffffffffffff1673ffffffffffffffffffffffffffffffffffffffff168152602001600660009054906101000a900473ffffffffffffffffffffffffffffffffffffffff1673ffffffffffffffffffffffffffffffffffffffff1673ffffffffffffffffffffffffffffffffffffffff168152602001600760009054906101000a900473ffffffffffffffffffffffffffffffffffffffff1673ffffffffffffffffffffffffffffffffffffffff1673ffffffffffffffffffffffffffffffffffffffff168152602001600860009054906101000a900473ffffffffffffffffffffffffffffffffffffffff1673ffffffffffffffffffffffffffffffffffffffff1673ffffffffffffffffffffffffffffffffffffffff16815250905060005b600781101561064757600073ffffffffffffffffffffffffffffffffffffffff168282600781106104fd576104fc610fbe565b5b602002015173ffffffffffffffffffffffffffffffffffffffff1603156106345781816007811061053157610530610fbe565b5b602002015173ffffffffffffffffffffffffffffffffffffffff1663d06ca61f8661055c8a8a610bf6565b6040518363ffffffff1660e01b81526004016105799291906110ab565b600060405180830381865afa9250505080156105b857506040513d6000823e3d601f19601f820116820180604052508101906105b59190611249565b60015b15610633578481600183516105cd91906112c1565b815181106105de576105dd610fbe565b5b602002602001015111156106315780600182516105fb91906112c1565b8151811061060c5761060b610fbe565b5b6020026020010151945082826007811061062957610628610fbe565b5b602002015193505b505b5b808061063f906112f5565b9150506104c9565b5050935093915050565b600360009054906101000a900473ffffffffffffffffffffffffffffffffffffffff1681565b600260009054906101000a900473ffffffffffffffffffffffffffffffffffffffff1681565b600560009054906101000a900473ffffffffffffffffffffffffffffffffffffffff1681565b60008054906101000a900473ffffffffffffffffffffffffffffffffffffffff1681565b60008054906101000a900473ffffffffffffffffffffffffffffffffffffffff1673ffffffffffffffffffffffffffffffffffffffff163373ffffffffffffffffffffffffffffffffffffffff1614610775576040517f08c379a000000000000000000000000000000000000000000000000000000000815260040161076c9061139a565b60405180910390fd5b80600160006101000a81548173ffffffffffffffffffffffffffffffffffffffff021916908373ffffffffffffffffffffffffffffffffffffffff16021790555050565b600760009054906101000a900473ffffffffffffffffffffffffffffffffffffffff1681565b600160009054906101000a900473ffffffffffffffffffffffffffffffffffffffff1681565b60008060003073ffffffffffffffffffffffffffffffffffffffff1663228c04b88989896040518463ffffffff1660e01b8152600401610847939291906113ba565b6040805180830381865afa158015610863573d6000803e3d6000fd5b505050506040513d601f19601f820116820180604052508101906108879190611406565b91509150600073ffffffffffffffffffffffffffffffffffffffff168173ffffffffffffffffffffffffffffffffffffffff16036108fa576040517f08c379a00000000000000000000000000000000000000000000000000000000081526004016108f190611492565b60405180910390fd5b8773ffffffffffffffffffffffffffffffffffffffff166323b872dd3330896040518463ffffffff1660e01b8152600401610937939291906113ba565b6020604051808303816000875af1158015610956573d6000803e3d6000fd5b505050506040513d601f19601f8201168201806040525081019061097a91906114ea565b508773ffffffffffffffffffffffffffffffffffffffff1663095ea7b382886040518363ffffffff1660e01b81526004016109b6929190611517565b6020604051808303816000875af11580156109d5573d6000803e3d6000fd5b505050506040513d601f19601f820116820180604052508101906109f991906114ea565b5060006064600a88610a0b9190611540565b610a1591906115b1565b90506000811115610ad0578873ffffffffffffffffffffffffffffffffffffffff1663a9059cbb600160009054906101000a900473ffffffffffffffffffffffffffffffffffffffff16836040518363ffffffff1660e01b8152600401610a7d929190611517565b6020604051808303816000875af1158015610a9c573d6000803e3d6000fd5b505050506040513d601f19601f82011682018060405250810190610ac091906114ea565b508087610acd91906112c1565b96505b60008273ffffffffffffffffffffffffffffffffffffffff166338ed17398989610afa8e8e610bf6565b8a61012c42610b0991906115e2565b6040518663ffffffff1660e01b8152600401610b29959493929190611616565b6000604051808303816000875af1158015610b48573d6000803e3d6000fd5b505050506040513d6000823e3d601f19601f82011682018060405250810190610b719190611249565b90508060018251610b8291906112c1565b81518110610b9357610b92610fbe565b5b602002602001015194505050505095945050505050565b600660009054906101000a900473ffffffffffffffffffffffffffffffffffffffff1681565b600860009054906101000a900473ffffffffffffffffffffffffffffffffffffffff1681565b6060600267ffffffffffffffff811115610c1357610c126110f1565b5b604051908082528060200260200182016040528015610c415781602001602082028036833780820191505090505b5090508281600081518110610c5957610c58610fbe565b5b602002602001019073ffffffffffffffffffffffffffffffffffffffff16908173ffffffffffffffffffffffffffffffffffffffff16815250508181600181518110610ca857610ca7610fbe565b5b602002602001019073ffffffffffffffffffffffffffffffffffffffff16908173ffffffffffffffffffffffffffffffffffffffff168152505092915050565b600073ffffffffffffffffffffffffffffffffffffffff82169050919050565b6000819050919050565b6000610d2d610d28610d2384610ce8565b610d08565b610ce8565b9050919050565b6000610d3f82610d12565b9050919050565b6000610d5182610d34565b9050919050565b610d6181610d46565b82525050565b6000602082019050610d7c6000830184610d58565b92915050565b6000604051905090565b600080fd5b600080fd5b6000610da182610ce8565b9050919050565b610db181610d96565b8114610dbc57600080fd5b50565b600081359050610dce81610da8565b92915050565b6000819050919050565b610de781610dd4565b8114610df257600080fd5b50565b600081359050610e0481610dde565b92915050565b600080600060608486031215610e2357610e22610d8c565b5b6000610e3186828701610dbf565b9350506020610e4286828701610dbf565b9250506040610e5386828701610df5565b9150509250925092565b610e6681610dd4565b82525050565b610e7581610d96565b82525050565b6000604082019050610e906000830185610e5d565b610e9d6020830184610e6c565b9392505050565b6000610eaf82610d34565b9050919050565b610ebf81610ea4565b82525050565b6000602082019050610eda6000830184610eb6565b92915050565b6000602082019050610ef56000830184610e6c565b92915050565b600060208284031215610f1157610f10610d8c565b5b6000610f1f84828501610dbf565b91505092915050565b600080600080600060a08688031215610f4457610f43610d8c565b5b6000610f5288828901610dbf565b9550506020610f6388828901610dbf565b9450506040610f7488828901610df5565b9350506060610f8588828901610df5565b9250506080610f9688828901610dbf565b9150509295509295909350565b6000602082019050610fb86000830184610e5d565b92915050565b7f4e487b7100000000000000000000000000000000000000000000000000000000600052603260045260246000fd5b600081519050919050565b600082825260208201905092915050565b6000819050602082019050919050565b61102281610d96565b82525050565b60006110348383611019565b60208301905092915050565b6000602082019050919050565b600061105882610fed565b6110628185610ff8565b935061106d83611009565b8060005b8381101561109e5781516110858882611028565b975061109083611040565b925050600181019050611071565b5085935050505092915050565b60006040820190506110c06000830185610e5d565b81810360208301526110d2818461104d565b90509392505050565b600080fd5b6000601f19601f8301169050919050565b7f4e487b7100000000000000000000000000000000000000000000000000000000600052604160045260246000fd5b611129826110e0565b810181811067ffffffffffffffff82111715611148576111476110f1565b5b80604052505050565b600061115b610d82565b90506111678282611120565b919050565b600067ffffffffffffffff821115611187576111866110f1565b5b602082029050602081019050919050565b600080fd5b6000815190506111ac81610dde565b92915050565b60006111c56111c08461116c565b611151565b905080838252602082019050602084028301858111156111e8576111e7611198565b5b835b8181101561121157806111fd888261119d565b8452602084019350506020810190506111ea565b5050509392505050565b600082601f8301126112305761122f6110db565b5b81516112408482602086016111b2565b91505092915050565b60006020828403121561125f5761125e610d8c565b5b600082015167ffffffffffffffff81111561127d5761127c610d91565b5b6112898482850161121b565b91505092915050565b7f4e487b7100000000000000000000000000000000000000000000000000000000600052601160045260246000fd5b60006112cc82610dd4565b91506112d783610dd4565b92508282039050818111156112ef576112ee611292565b5b92915050565b600061130082610dd4565b91507fffffffffffffffffffffffffffffffffffffffffffffffffffffffffffffffff820361133257611331611292565b5b600182019050919050565b600082825260208201905092915050565b7f4e6f7420617574686f72697a6564000000000000000000000000000000000000600082015250565b6000611384600e8361133d565b915061138f8261134e565b602082019050919050565b600060208201905081810360008301526113b381611377565b9050919050565b60006060820190506113cf6000830186610e6c565b6113dc6020830185610e6c565b6113e96040830184610e5d565b949350505050565b60008151905061140081610da8565b92915050565b6000806040838503121561141d5761141c610d8c565b5b600061142b8582860161119d565b925050602061143c858286016113f1565b9150509250929050565b7f4e6f206c69717569646974790000000000000000000000000000000000000000600082015250565b600061147c600c8361133d565b915061148782611446565b602082019050919050565b600060208201905081810360008301526114ab8161146f565b9050919050565b60008115159050919050565b6114c7816114b2565b81146114d257600080fd5b50565b6000815190506114e4816114be565b92915050565b600060208284031215611500576114ff610d8c565b5b600061150e848285016114d5565b91505092915050565b600060408201905061152c6000830185610e6c565b6115396020830184610e5d565b9392505050565b600061154b82610dd4565b915061155683610dd4565b925082820261156481610dd4565b9150828204841483151761157b5761157a611292565b5b5092915050565b7f4e487b7100000000000000000000000000000000000000000000000000000000600052601260045260246000fd5b60006115bc82610dd4565b91506115c783610dd4565b9250826115d7576115d6611582565b5b828204905092915050565b60006115ed82610dd4565b91506115f883610dd4565b92508282019050808211156116105761160f611292565b5b92915050565b600060a08201905061162b6000830188610e5d565b6116386020830187610e5d565b818103604083015261164a818661104d565b90506116596060830185610e6c565b6116666080830184610e5d565b969550505050505056fea264697066735822122043b710edcec67d7759a8cd8a894ef3a8eefe4d04ac411b02062831be24eb84f364736f6c63430008140033",
  "linkReferences": {},
  "deployedLinkReferences": {}
}